:020000001628C0
:0E0006008312031325088A00240882000800D4
:1000140003208A110A128000840AA40A0319A50A7B
:08002400F003031D0A28080087
:10002C00073083120313A000A101A201A3018316C0
:10003C00860183120514051C60280130A2000030D3
:10004C00A3004130FC00EE30FD00FD0B2B28FC0B17
:10005C002B280000051836280130A002031CA10330
:10006C0080302106F00080307002031D3F280030E4
:10007C00200203184428200886006028003023063C
:10008C00031D4A2801302206031D5128A201A30199
:10009C00A00A0319A10A8030F000803021067002FA
:1000AC00031D5A282008073C03185E28A001A10153
:0800BC002008860021286128BC
:02400E004A2F37
:00000001FF
