:020000000328D3
:1000060083160313860183128601061186100610D5
:100016000230FB004530FC00A930FD00FD0B112825
:10002600FC0B1128FB0B112800000000061186109E
:1000360006140230FB004530FC00A930FD00FD0B24
:100046002228FC0B2228FB0B2228000000000611A8
:10005600861406100230FB004530FC00A930FD0076
:10006600FD0B3328FC0B3328FB0B33280000000064
:100076000611861406140230FB004530FC00A93038
:10008600FD00FD0B4428FC0B4428FB0B4428000014
:1000960000000615861006100230FB004530FC00F5
:1000A600A930FD00FD0B5528FC0B5528FB0B5528E8
:1000B600000000000615861006140230FB004530CD
:1000C600FC00A930FD00FD0B6628FC0B6628FB0B27
:1000D6006628000000000615861406100230FB0094
:1000E6004530FC00A930FD00FD0B7728FC0B772876
:1000F600FB0B772800000000061586140614023054
:10010600FB004530FC00A930FD00FD0B8828FC0BE8
:0E0116008828FB0B882800000000082891288C
:02400E004A2F37
:00000001FF
