:020000001628C0
:0E0006008312031323088A00220882000800D8
:1000140003208A110A128000840AA20A0319A30A7F
:08002400F003031D0A28080087
:10002C0083120313A001A10183168601831286019A
:10003C0080302106F00080307002031D2728033029
:10004C0020020318852886176230FC006530FD00FD
:10005C00FD0B2E28FC0B2E280000000086136230AE
:10006C00FC006530FD00FD0B3928FC0B3928000025
:10007C00000086176230FC006530FD00FD0B442843
:10008C00FC0B44280000000086136230FC00653035
:10009C00FD00FD0B4F28FC0B4F28000000008617BD
:1000AC006230FC006530FD00FD0B5A28FC0B5A2811
:1000BC000000000086136230FC006530FD00FD0B73
:1000CC006528FC0B65280000000086176230FC00D8
:1000DC006530FD00FD0B7028FC0B70280000000043
:1000EC0086136230FC006530FD00FD0B7B28FC0B99
:1000FC007B2800000000A00A0319A10A1E288528ED
:02400E004A2F37
:00000001FF
